:100000000C94C4020C94F5020C94F5020C94F502C5
:100010000C94F5020C94F5020C94F5020C94F50284
:100020000C94F5020C94F5020C94F5020C94F50274
:100030000C94F5020C94F5020C94F5020C94F50264
:100040000C94F5020C94F5020C94F5020C94F50254
:100050000C94F5020C94F5020C94F5020C944B20D0
:100060000C94F5020C94F5020C94F5020C94F50234
:100070000C94F5020C94F5020C94F5020C94F50224
:100080000C94F5020C94F5020C94F5020C94F50214
:100090000C94F5020C94F5020C94F5020C94F50204
:1000A0000C94F5020C94F5020C94F5020C94F502F4
:1000B0000C94F5020C94F5020C94F5020C94F502E4
:1000C0000C94F5020C94F5020C94F5020C94F502D4
:1000D0000C94F5020C94F5020C94F5020C94F502C4
:1000E0000C94F5020C94901A0C9495110C94031F27
:1000F0000C94CA0A0C9441230C946F1F0C94421F59
:100100000C947C070C94B70A0C9416040C94651C90
:100110000C9442040C9442080C94580E0C94C1099F
:100120000C945F1C0C9415200C94B5110C940218BF
:100130000C946B1C0C9498170C947B100C945C1A08
:100140000C9452150C94D7090C941C040C940B04B9
:100150000C94681C0C9499080C94F7020C94531995
:100160000C942A040C942E040C9480190C942616DA
:100170000C9425110C9446040C94490E0C943E16D4
:100180000C94DA1A0C9441040C94C31A0C942604AF
:100190000C940D080C9426190C947C0D0C94FF14EF
:1001A0000C9490070C94171E0C9413040C94A71035
:1001B0000C948D090C9486070C94A9230C94770752
:1001C0000C94601F0C9420040C94621C0C94070483
:1001D0000C945B110C946E1D0C94CB170C94E817C7
:1001E0000C9481070C940F040C946D070C94B01DB3
:1001F0000C94D6100C9421180C94A40A0C94711C25
:100200000C9495070C9438200C94500B0C943404E7
:100210000C94800D0C946F090C943C040C94071BF7
:100220000C9438040C94511F0C948B070C94F11A05
:100230000C946E1C0C94D4140C94780D0C942C1DFE
:100240000C9472070C943D190C9478110C94A40929
:100250000C94620E0C94C6140C9434160C94EA1C84
:100260000C940104000000000000000000000000E9
:10027000000000000000000000000000010101017A
:100280000101010101010101020202020202020256
:10029000030303030303040404040505050505061D
:1002A0000606060707070808080909090A0A0A0BCB
:1002B0000B0B0C0C0D0D0D0E0E0F0F10101111125B
:1002C00012131314141515161617181819191A1BCA
:1002D0001B1C1D1D1E1F1F20212222232425262614
:1002E0002728292A2A2B2C2D2E2F30313233343532
:1002F000363738393A3B3C3D3E3F40414244454623
:100300004748494B4C4D4E50515254555658595AE6
:100310005C5D5E606163646667696A6C6D6F707274
:10032000737577787A7C7D7F8182848688898B8DCE
:100330008F91929496989A9C9EA0A2A4A6A8AAACEB
:10034000AEB0B2B4B6B8BABCBFC1C3C5C7CACCCED2
:10035000D1D3D5D7DADCDFE1E3E6E8EBEDF0F2F577
:10036000F7FAFCFF808386898C8F9295989B9EA2DA
:10037000A5A7AAADB0B3B6B9BCBEC1C4C6C9CBCEE1
:10038000D0D3D5D7DADCDEE0E2E4E6E8EAEBEDEE66
:10039000F0F1F3F4F5F6F8F9FAFAFBFCFDFDFEFED8
:1003A000FEFFFFFFFFFFFFFFFEFEFEFDFDFCFBFA71
:1003B000FAF9F8F6F5F4F3F1F0EEEDEBEAE8E6E43D
:1003C000E2E0DEDCDAD7D5D3D0CECBC9C6C4C1BE1D
:1003D000BCB9B6B3B0ADAAA7A5A29E9B9895928FC3
:1003E0008C898683807C797673706D6A6764615DC1
:1003F0005A5855524F4C494643413E3B39363431A9
:100400002F2C2A282523211F1D1B19171514121103
:100410000F0E0C0B0A090706050504030202010171
:1004200001000000000000000101010202030405B8
:10043000050607090A0B0C0E0F1112141517191BCC
:100440001D1F212325282A2C2F313436393B3E41CC
:100450004346494C4F5255585A5D6164676A6D7006
:100460007376797C000020002300260029002C00F0
:100470002F00320000010000030106010901000005
:100480002100240027002A002D0030003300010144
:100490000000040107010A010000220025002800D5
:1004A0002B002E003100340002010000050108017C
:1004B0000B010505050507050808080802020202E8
:1004C0000A0A0808040404040101010101010101F0
:1004D0000303030303030303040707070C0C0C0CBB
:1004E0000C0C0C0C020202020606060606060606A4
:1004F0000B0B0B0B0B0B0B0B010210202008081031
:100500002040102040800201020108040201010283
:10051000040810204080804020100804020180045C
:1005200002018040201008040201080402010102B7
:1005300004081020408001020408102040800000C0
:100540000A0B02090C0D0E0807030401000000004D
:10055000000000000000000000000000000000009B
:100560000000000000000000000012111000000058
:10057000000000000000000000000000000000007B
:10058000000000004123A92311241FBECFEFD1E2B8
:10059000DEBFCDBF00E00CBF13E0A0E0B2E0E4EEB0
:1005A000FCE400E00BBF02C007900D92AA31B10736
:1005B000D9F726E0AAE1B3E001C01D92A23DB2073F
:1005C000E1F712E0C3ECD2E000E006C02197010998
:1005D000802FFE010E940425C23CD10780E008075D
:1005E000A9F70E94D7210C9460260C94000088EE95
:1005F00093E00895CF92DF92EF92FF92282F2095FB
:10060000253500F53DEF3203B001112461507F4FD5
:100610006B01770FEE08FF087601DD24CC2443E060
:10062000249FC0011124092E000CAA0BBB0BBC0196
:10063000CD016C297D298E299F29FF90EF90DF90B5
:10064000CF9008952A3AC0F4255583E0289F600191
:1006500011240D2C000CEE08FF08FE2CED2CDC2CD8
:10066000CC244DEF42039001112421503F4FB9019A
:10067000330F880B990BDDCF2A5A3DEF3203B001BF
:10068000112461507F4F6B01770FEE08FF08FE2C9D
:10069000ED2CDC2CCC2443E0249FB0011124072E48
:1006A000000C880B990BCB0177276627C2CF4F929E
:1006B0005F926F927F928F929F92AF92BF92CF92F2
:1006C000DF92EF92FF920F936B017C0149015A0177
:1006D000002309F465C00F3F09F472C0202F30E0F9
:1006E000EFEFF0E0E21BF30B4B2D55276627772742
:1006F000249FC001259F900D349F900D11244F2DF4
:10070000552766277727E49F9001E59F300DF49FDA
:10071000300D1124820F931F892F9927B0E0A0E09C
:10072000B82FAA2799278827EE9EA001EF9E500D8B
:1007300011240A9D400D511D1124452F552770E0AD
:1007400060E0BA0155274427842B952BA62BB72BA5
:10075000CE9E2001CF9E500C1124089D400C511CB0
:100760001124452C5524712C612C84299529A62906
:10077000B729DE9EA001DF9E500D1124099D400D7A
:10078000511D1124452F552770E060E0762F652F0D
:10079000542F44276C017D01C42AD52AE62AF72A62
:1007A000C701B6010F91FF90EF90DF90CF90BF90FF
:1007B000AF909F908F907F906F905F904F90089533
:1007C0007A016901EDCF8150823108F05AC0E82FDB
:1007D000F0E08827E151FC4F8F4F0C9404250F0463
:1007E0001304010407040B04410416041C04200430
:1007F00026042A042E043404380441043C04420430
:100800004604809180008F778093800008958091C6
:1008100080008F7DF9CF80918000877FF5CF84B5F0
:100820008F7784BD089584B58F7DFBCF8091B00014
:100830008F778093B00008958091B0008F7DF9CFBD
:10084000809190008F778093900008958091900020
:100850008F7DF9CF80919000877FF5CF8091A000A8
:100860008F778093A00008958091A0008F7DF9CFAD
:100870008091A000877FF5CF809120018F778093B2
:1008800020010895809120018F7DF9CF8091200172
:10089000877FF5CFCF93DF93282F30E0F901E25C1B
:1008A000FA4F8491F901E850FB4FD491F901EE54CD
:1008B000FB4FC491CC2391F081110E94E303EC2FF4
:1008C000F0E0EE0FFF1FE856FB4FA591B4918FB7F4
:1008D000F894EC91D095DE23DC938FBFDF91CF911C
:1008E0000895CF93DF9390E0FC01E850FB4F2491F3
:1008F0008E549B4FFC0184918823C9F090E0880FAF
:10090000991FFC01E258FB4FA591B491FC01E856F8
:10091000FB4FC591D49161110DC09FB7F8948C9194
:10092000209582238C938881282328839FBFDF9181
:10093000CF910895623051F49FB7F8943C91822F83
:10094000809583238C93E8812E2BEFCF8FB7F8947B
:10095000EC912E2B2C938FBFEACF3FB7F894809168
:100960001F0390912003A0912103B091220326B58B
:10097000A89B05C02F3F19F00196A11DB11D3FBFD7
:10098000BA2FA92F982F8827BC01CD01620F711DA6
:10099000811D911D42E0660F771F881F991F4A95A0
:1009A000D1F708958F929F92AF92BF92CF92DF922C
:1009B000EF92FF924B015C010E94AD046B017C0140
:1009C0000E94AD046C197D098E099F09683E734031
:1009D00081059105A8F321E0821A9108A108B108C8
:1009E00088EEC80E83E0D81EE11CF11C811491042E
:1009F000A104B10429F7FF90EF90DF90CF90BF9052
:100A0000AF909F908F900895CF92DF92EF92FF92D8
:100A10000F931F93CF93DF93FC012081318137FD2A
:100A200070C0EC013327F901E25CFA4F8491F901BF
:100A3000E850FB4FF490F901EE54FB4F149130E075
:100A400020E0112399F081110E94E303E12FF0E0EF
:100A5000EE0FFF1FEC59FB4FA591B491EC91FE22D4
:100A600091E080E009F490E0292F382FE885F9859E
:100A70008FB7F894C0901B03D0901C03E0901D0327
:100A8000F0901E038FBF8AA99BA9ACA9BDA9B7018D
:100A9000A601481B590B6A0B7B0B8EA59FA58230C4
:100AA000910509F473C054F40097E1F08130910589
:100AB00089F199AB88AB1FA61EA623C0863091058D
:100AC00009F4C4C08730910509F4DDC08330910575
:100AD00081F7E217F30709F078C099AB88AB81E0A2
:100AE00090E02FC0E217F30761F419AA18AA81E079
:100AF00090E09FA78EA7CAAADBAAECAAFDAA1FAA0C
:100B00001EAADF91CF911F910F91FF90EF90DF9080
:100B1000CF900895E217F307D9F00A811B8130E0E6
:100B200020E0401751076207730738F428A939A954
:100B300099AB88AB3FA72EA7E4CF99AB88AB82E0F7
:100B400090E09FA78EA7CAAADBAAECAAFDAAD9CFDC
:100B50008E819F81B0E0A0E084179507A607B707B4
:100B600080F6EC8DFD8D309709F01995EE8DFF8D97
:100B7000309719F088A199A119958EA59FA599ABD9
:100B800088AB86E090E09FA78EA7BBCFCA80DB80B2
:100B9000F12CE12CE217F30789F44C155D056E0585
:100BA0007F0520F28EA99FA901969FAB8EAB82E0B4
:100BB00090E099AB88AB83E090E0E5CF4C155D0504
:100BC0006E057F0508F49DCFEDCF8EA99FA9CC803F
:100BD000DD80F12CE12CC416D506E606F70630F0D0
:100BE00028AD39AD2817390709F08BCF8130910531
:100BF000B9F4EA85FB85309709F01995EC85FD85F8
:100C0000309719F08E859F8519951FA61EA619AAE3
:100C100018AA1FAA1EAA1AAA1BAA1CAA1DAA71CF2B
:100C2000029761F4E889F989309709F01995EA8902
:100C3000FB89309751F38C899D89E6CFEE89FF8936
:100C4000309709F01995E88DF98DF3CFE217F30786
:100C500029F099AB88AB87E090E073CFE8A5F9A5C0
:100C6000309709F01995EAA5FBA5309709F449CF0B
:100C70008CA59DA5DF91CF911F910F91FF90EF90D3
:100C8000DF90CF901994CA80DB80F12CE12CE21721
:100C9000F30799F44C155D056E057F0508F446CF02
:100CA000EAA1FBA1309709F01995ECA1FDA13097BD
:100CB00009F4ABCF8EA19FA1A7CF4C155D056E05A2
:100CC0007F0508F41ECFECCFEF92FF920F931F9396
:100CD000DC0118968C911897882381F0489FA00119
:100CE0001124452F829F90011124232F809F800182
:100CF0001124012F8E9D70011124EF2C1E968C91D2
:100D00001E971996ED91FC911A971B969C911B9733
:100D1000891320C0CB01880F991F680F791F6E0FB0
:100D20007F1F1B96EC911B97E60FF72FF11D408359
:100D30001C96EC911C97E60FF72FF11D20831D9652
:100D40008C91680F711DFB0100831F910F91FF9023
:100D5000EF900895660F771F660F771F6E0F7F1F46
:100D6000FB01E80FF11DE082DCCF2F923F924F9202
:100D70005F926F927F928F929F92AF92BF92CF922B
:100D8000DF92EF92FF920F931F93CF93DF9300D0E8
:100D90001F921F92CDB7DEB7DC014A015B011296AC
:100DA0004D915C9113975D834C832417350708F0B0
:100DB0007CC00115110539F0020F131F0417150728
:100DC00010F41D830C83A982292C4B2D55276627EF
:100DD00077274A833A01C90110E000E08B82EC8159
:100DE000FD818E179F0708F060C012964D915C91AF
:100DF00013978417950708F040C03B801896FC9025
:100E00001897422C5980FF2069F0F981FF9DA001BD
:100E10001124552EF29CA0011124452EF89CA0010E
:100E20001124352E1E96EC901E971996CD90DC90CD
:100E30001A971B964C911B97B901600F711FE41212
:100E400020C07B01EE0CFF1C6E0D7F1D6C0D7D1D07
:100E50001B96EC911B97E60FF72FF11D50821C9605
:100E6000EC911C97E60FF72FF11D40821D964C91D7
:100E70001D97640F711DFB01308201960F5F1F4F9C
:100E8000AECF660F771F660F771F6C0D7D1D4A81F1
:100E9000FF2031F0F69CA001F79C500D1124452F46
:100EA000FB01EE0DF11D4083D3CF0F900F900F90FB
:100EB0000F900F90DF91CF911F910F91FF90EF90C6
:100EC000DF90CF90BF90AF909F908F907F906F906A
:100ED0005F904F903F902F900895DC019696ED9192
:100EE000FC911994DC019496ED91FC911994DC012C
:100EF0009296ED91FC911994DC019096ED91FC9104
:100F00001994DC015E96ED91FC911994DC015C96DC
:100F1000ED91FC911994DC015A96ED91FC91199494
:100F2000DC015896ED91FC911994EF92FF920F938A
:100F30001F93CF93DF93EC01EDA9FEA909AD1AAD84
:100F40002081318144855585668577850E94B50667
:100F5000EDA9FEA924813581C90164E670E00E94F3
:100F6000DC247B014FEFE41AF40AEE0CFF1CAFA95E
:100F7000B8AD14968D919D910D90BC91A02DA701B7
:100F800070E060E084179507A607B707A0F1C901D4
:100F90006AE070E00E94DC242CE9AC0124038001AB
:100FA000259F100D1124045B1B4F0FA8D8ADC02D39
:100FB0006C817D818E819F816F5F7F4F8F4F9F4FAF
:100FC0005FEFE51AF50A970150E040E00E94AB247C
:100FD0006C837D838E839F83672B682B692B19F429
:100FE0008D8580648D87C801DF91CF911F910F910E
:100FF000FF90EF90089502E310E080FDD6CF09AD99
:101000001AAD208131814085518562857385CE017D
:101010000E94B50604E110E0C8CF0F931F93CF9351
:10102000DF93EC01EFA9F8AD84810E94FA02AB01D5
:10103000BC0109AD1AADEDA9FEA920813181CE0117
:101040000E94B506EFA9F8AD84819581A681B7818C
:101050000196A11DB11D9927AA27BB2784839583DB
:10106000A683B783892B8A2B8B2B19F48585806403
:101070008587EDA9FEA9858190E0DF91CF911F9131
:101080000F910895EF92FF920F931F93CF93DF93E9
:10109000EC01EFA9F8AD048115810F3F110539F07E
:1010A00034F08FEF91E09C01201B310B8901EDA8FA
:1010B000FEA8F701208531854285538564857585B5
:1010C000868597850E945703AB01BC0109AD1AAD17
:1010D000F70120813181CE010E94B506EFA9F8AD5C
:1010E00084819581A681B7810496A11DB11D8115CA
:1010F00022E09207A105B105A0F484839583A6831D
:10110000B783EDA9FEA984819581880F892F881F57
:10111000990B9195DF91CF911F910F91FF90EF90D7
:1011200008951482158216821782858580648587CA
:10113000E8CFCF92DF92EF92FF920F931F93CF935E
:10114000DF937C01DC01D796ED91FC910481158140
:101150000F3F110539F034F08FEF91E0FC01E01BF7
:10116000F10B8F01CAECD3E00F30110501F1C6E29B
:10117000D0E00A311105DCF0C4E2D0E00333110500
:10118000B4F0CCE1D0E00C3411058CF0C4E1D0E037
:101190000536110564F0CEE0D0E00E3711053CF0C5
:1011A000CAE0D0E00739110514F4CBE0D0E0D70154
:1011B000D596CD90DC90F60120853185428553850A
:1011C00064857585868597850E945703AB01BC01B0
:1011D000D701D9960D911C91F60120813181C7016B
:1011E0000E94B506D701D796ED91FC918481958137
:1011F000A681B7810296A11DB11D823F21E0920711
:10120000A105B10570F484839583A683B783CE01CD
:10121000DF91CF911F910F91FF90EF90DF90CF90D2
:1012200008958FE090E0A0E0B0E084839583A683EA
:10123000B783858580648587EACFDF92EF92FF923E
:101240000F931F93CF93DF93EC01F02FE12F922F99
:10125000832F2DA93EA9D9011796FC900FA918AD8F
:10126000D8011896DC9009AD1AADD9012D913C91A9
:10127000D0FE21C0F7FE04C0F42FE52F962F872F54
:101280004F2F5E2F692F782FCE010E94B506EFA950
:10129000F8AD858580648587EDA9FEA98481958157
:1012A000EE20D1F04497DF91CF911F910F91FF90E5
:1012B000EF90DF900895F7FE04C04F2F5E2F692F47
:1012C000782FCE010E94B50684E190E0E110EBCFCB
:1012D000EDA9FEA98481958196958795E4CFEF923B
:1012E0000F931F93CF93DF93EC01EFA9F8AD8085A7
:1012F0000E94FA02AB01BC01EDA9FEA90485158587
:1013000026853785EE24E394CE010E941D09DF91E6
:10131000CF911F910F91EF900895EF920F931F932C
:10132000DC01D596ED91FC910485158526853785E0
:101330004085518562857385EE24E3940E941D09E2
:101340001F910F91EF900895EF920F931F93CF93FA
:10135000DF93EC01EFA9F8AD80850E94FA02AB01A2
:10136000BC01EDA9FEA90485158526853785E12CEC
:10137000CE010E941D09DF91CF911F910F91EF9037
:101380000895EF920F931F93DC01D596ED91FC9198
:101390000485158526853785408551856285738549
:1013A000E12C0E941D091F910F91EF9008950F935A
:1013B0001F93CF93DF93EC01EDA9FEA909AD1AAD00
:1013C0002081318140855185628573850E94B506F3
:1013D000EFA9F8AD858580648587EDA9FEA9848194
:1013E0009581DF91CF911F910F910895FC0166893E
:1013F000778945E058E0649F9001659F300D749FA8
:10140000300D1124275E394C378B268B832F820FAA
:1014100008950F931F93CF938C010E94F609C82F54
:10142000C8010E94F6092C2F30E0322F2227820FAC
:10143000932F911DCF911F910F9108954F925F921D
:101440006F927F928F929F92AF92BF92CF92DF92D4
:10145000EF92FF920F931F93CF93DF93EC012A013A
:101460003B0148015901EFA9F8AD84819581A6811E
:10147000B781892B8A2B8B2B49F409AD1AADEDA9C5
:10148000FEA920813181CE010E94B506EDA9FEA9F9
:10149000878190E0959587958370992721E030E0CA
:1014A000790102C0EE0CFF1C8A95E2F7AFA9B8AD36
:1014B0001E962D913C9180819181280F391F8701C3
:1014C000B301A201CE010E94B50609AD1AAD0E19F5
:1014D0001F09CFA8D8ACCE010E94090A9C01D801EF
:1014E0000E94CD24F60197878687ADA9BEA9EFA9F2
:1014F000F8AD2D913C9186859785280F391F87017E
:10150000B501A401CE010E94B506EFA9F8AD85850D
:1015100080648587EDA9FEA98481958135E0969543
:1015200087953A95E1F7DF91CF911F910F91FF9049
:10153000EF90DF90CF90BF90AF909F908F907F9073
:101540006F905F904F9008950F931F93DC01D59695
:10155000ED91FC9140855185628573850FEF1FEFFA
:101560002FEF30E00E941E0A1F910F9108950F93F4
:101570001F93DC01D596ED91FC91008511852285A4
:10158000338544855585668577850E941E0A1F919F
:101590000F910895AF92BF92CF92DF92EF92FF9298
:1015A0000F931F93CF93DF93EC01EDA9FEA909AD33
:1015B0001AAD2081318140855185628573850E94F5
:1015C000B506EDA9FEA9878190E095958795837072
:1015D000992721E030E0790102C0EE0CFF1C8A95CA
:1015E000E2F768E0A62EEDA9FEA900811181C9AC41
:1015F000DAACCE18DF08CE010E94F609B82ECE0173
:101600000E94F6092B2D30E0322F2227280F311DA2
:10161000D6010E94CD249801280F391F87014FEF72
:101620005FEF6FEF70E0CE010E94B506AA94A110A3
:10163000DACFEFA9F8AD858580648587EDA9FEA98D
:101640008481958125E0969587952A95E1F7DF912C
:10165000CF911F910F91FF90EF90DF90CF90BF90AF
:10166000AF9008950F931F93CF93DF938C01C62FF4
:10167000D0E0C8010E94F6099E01281B310937FFFE
:1016800003C0319521953109922F9095291708F4BF
:10169000922F9A3270F3DF91CF911F910F9108959D
:1016A0000F931F93CF93DF93EC010FA918ADF801AF
:1016B00064850E94320BF8018487EFA9F8AD848518
:1016C0000E94FA02AB01BC0109AD1AADEDA9FEA959
:1016D00020813181CE010E94B506EFA9F8AD858544
:1016E00080648587EDA9FEA984819581DF91CF91E2
:1016F0001F910F910895CF92DF92EF92FF920F9377
:101700001F93CF93DF9300D000D000D0CDB7DEB7CA
:10171000DC019896ED91FC91309709F0CBC08C01DB
:10172000FC0181859285892B09F47AC0D8011F9626
:10173000CD90DD90ED90FC9052970E94AD046C1519
:101740007D058E059F0538F40E94AD04F80167877A
:10175000708B818B928B0E94AD04D8011F96CD9027
:10176000DD90ED90FC9052976C197D098E099F09D0
:101770006C32714081059105C8F2F894F8018481BA
:1017800095819A8389830184F285E02D7F012FEF73
:10179000E21AF20A80818987D8019C915396ED91D3
:1017A000FC91549755968C91992309F448C09081E7
:1017B000982B98879081809589238F838F818C8344
:1017C00088E08B8358856F8149853B812C81898195
:1017D0009A81D701508347FD252F3A952083262FE4
:1017E00039F0441F00C000006083000000C0F2CF49
:1017F00038E04D9160830000019761F7D80154965D
:10180000FC93EE93539749873B832C839A83898378
:1018100078940E94AD04F8016787708B818B928B5E
:1018200029960FB6F894DEBF0FBECDBFDF91CF91E2
:101830001F910F91FF90EF90DF90CF9008959081CE
:10184000982B98879081809589238F838F818E83B1
:1018500088E08D8358856F8149853D812E818981FE
:101860009A81D701508347FD252F00C000C02083F7
:1018700000C000C000C000C000C060830000262F70
:101880003A9541F0441F000000C000C000C000C0F5
:1018900000C0E8CF38E04D9100C0608300C00197E0
:1018A00009F7D8015496FC93EE93539749873D83EB
:1018B0002E83ACCF29960FB6F894DEBF0FBECDBFF6
:1018C000DF91CF911F910F91FF90EF90DF90CF901C
:1018D0001994FF920F931F93CF93DF93EC01FF2492
:1018E000F394F60E2885F21669F109851A852150C0
:1018F00029F16F3FE1F430E050E040E06FEF7FEF1F
:1019000080E090E00E947924B901F8014C815D816A
:10191000CF01801B910B8417950798F44081469F57
:10192000C001479F900D112490833196EFCF622F15
:1019300070E08FEF90E00E94DC24E7CF70E060E081
:10194000E4CFF886CE01DF91CF911F910F91FF90E8
:101950000C947B0BEF920F93CF93DF93EC01AA8152
:10196000BB81EDA9FEA9378133FF14C0EE2DF0E055
:10197000EC59FD4FE490E02FF0E0EC59FD4F04915D
:10198000E22FF0E0EC59FD4F2491E42FF0E0EC5908
:10199000FD4F44916A177B0710F40E946406DF91A3
:1019A000CF910F91EF9008952F923F924F925F92B7
:1019B0006F927F928F929F92AF92BF92CF92DF925F
:1019C000EF92FF920F931F93CF93DF9300D01F925C
:1019D000CDB7DEB79C838B83DC01D596ED91FC916E
:1019E000C084D184E284F3844F2C55246624772468
:1019F0004701AA24BB24482D33272F2D1E2D0D2D42
:101A0000202E3C2C842D481408F4882D831508F4CE
:101A10008C2D821508F4802F90E00E94F0245B0149
:101A2000C080D180E32DF0E0FA83E983312C842E4D
:101A3000912CAB81BC81D5962D913C91D697F90123
:101A4000828193818C159D0548F1CD010E94F60994
:101A5000F82FFA9DC001FB9D900D1124892F992725
:101A60007201E81AF90AF7FCE12C09811A81081BB6
:101A7000190B17FD00E09101281B390B37FD20E001
:101A8000A401481B590B57FD40E0B6018B819C8196
:101A90000E94AA0C2FEFC21AD20ACBCFEB81FC8195
:101AA000A7A9B0AD1D968C911D9780641D968C934F
:101AB000D90114968D919C9161AD72AD0E94DC2488
:101AC000CB010F900F900F900F90DF91CF911F914E
:101AD0000F91FF90EF90DF90CF90BF90AF909F90CD
:101AE0008F907F906F905F904F903F902F900895D0
:101AF00061E070E00C94D40C66E070E00C94D40CBF
:101B000063E070E00C94D40C4F925F926F927F92DE
:101B1000CF92DF92EF92FF920F931F93FB01890107
:101B20009A01C32EDD24EE24FF24412E522E632E73
:101B30007724A90166277727EC2C242DBF010E946A
:101B4000AA0C1F910F91FF90EF90DF90CF907F90A4
:101B50006F905F904F9008952F923F924F925F92B7
:101B60006F927F928F929F92AF92BF92CF92DF92AD
:101B7000EF92FF920F931F93CF93DF93EC016A01D3
:101B80007B010FA918ADF801608571858285938569
:101B900029E030E040E050E00E94AB24362EF8010E
:101BA0004480558066807780C301B2016F5F7F4FAC
:101BB0008F4F9F4F29AD3AAD50E040E00E94AB24DB
:101BC0004B015C01F8E03F1609F445C030FC05C04C
:101BD000CC24CA94DC2CEC2CF12CEDA9FEA9878135
:101BE00087FF29C06281738164197509A701960175
:101BF000CE010E94840DEDA9FEA96281738168194E
:101C00007909A7019601CE010E94840D8EE190E032
:101C1000DF91CF911F910F91FF90EF90DF90CF90C8
:101C2000BF90AF909F908F907F906F905F904F90FC
:101C30003F902F90089560817181640D751DA701FB
:101C40009601CE010E94840DEDA9FEA960817181EB
:101C5000680D791DD6CFF80184829582A682B7825D
:101C600089288A288B2859F46485CE010E94320B7A
:101C7000F8018487EFA9F8AD858580648587EDA993
:101C8000FEA98481958169AD7AAD0E94DC24CB01E7
:101C9000BFCFCF93DF93EC01EFA9F8AD84850E940D
:101CA000FA02AB01BC01CE01DF91CF910C94AC0DD7
:101CB000DC01D596ED91FC91408551856285738557
:101CC0000C94AC0D2F923F924F925F926F927F9245
:101CD0008F929F92AF92BF92CF92DF92EF92FF923C
:101CE0000F931F93CF93DF9300D000D000D01F92AB
:101CF0001F92CDB7DEB79B878A87DC01D596ED9121
:101D0000FC91878190E0959587958370992721E0D4
:101D100030E0A90102C0440F551F8A95E2F75C83A9
:101D20004B835B81598760857185828593856D833F
:101D30007E838F839887C484D584E684F784408823
:101D4000518862887388208031801A821982AA851E
:101D5000BB85D5962D913C91D697D796ED91FC9168
:101D6000D90112968D919C9113978215930508F4D1
:101D700070C049815A8165E078E0469F9001479F95
:101D8000300D569F300D1124275E394C832F992733
:101D9000820F931F269FA001279F500D369F500D45
:101DA0001124DA01A75EB94CBA83A9832B2F3327FC
:101DB0002A0F3B1F277033272F5F3F4F220F331F00
:101DC0003085082F329F000D112410E00C591C4F54
:101DD000F80104912D813E814F815885232B242BBE
:101DE000252B31F50E94FA02A70196010E945703A4
:101DF0004B015C018101AA85BB85D596ED91FC91D3
:101E0000D697828193818017910730F0A5019401C4
:101E1000B801CD010E94840D0F5F1F4F802F8219E2
:101E2000B9858B1740F3EB81FC812E0E3F1E8FCFBF
:101E3000A7019601411451046104710429F087FF40
:101E400003C0C301B201D2CF6D817E818F8198859D
:101E5000CDCF85858064858714968D919C9125E0F2
:101E6000969587952A95E1F72B960FB6F894DEBFE5
:101E70000FBECDBFDF91CF911F910F91FF90EF90DB
:101E8000DF90CF90BF90AF909F908F907F906F909A
:101E90005F904F903F902F9008952F923F924F92D6
:101EA0005F926F927F928F929F92AF92BF92CF92EA
:101EB000DF92EF92FF920F931F93CF93DF93CDB7F3
:101EC000DEB72D970FB6F894DEBF0FBECDBF1C0155
:101ED0004F83588769877A8728013901DC01D596B5
:101EE000ED91FC91878190E095958795FC01E370D9
:101EF000FF27FE83ED8381E090E09C010D8002C00E
:101F0000220F331F0A94E2F73A83298339813B87F2
:101F1000812C912C5401D101D9960D90BC91A02D0A
:101F2000BD87AC87D101D796ED91FC916481758115
:101F300086819781680D791D8A1D9B1DEC85FD8525
:101F40009F0150E040E00E94AB248B0189819A817F
:101F5000800F911F6C857D850E94DC249C838B8380
:101F600089819A814B815C81840F951F6C857D8569
:101F70000E94DC249D878C87D101D596ED91FC9140
:101F8000878187FF93C062817381601B710B2F81F2
:101F9000388549855A85C1010E94840DD101D596A5
:101FA000ED91FC9162817381EB81FC816E1B7F0B53
:101FB000A3019201C1010E94840DD101D596ED913A
:101FC000FC9162817381EC85FD856E1B7F0BA701FF
:101FD0009601C1010E94840DFFEF8F1A9F0AAF0A7C
:101FE000BF0A2B85821608F496CFD101D7960D90A3
:101FF000BC91A02DBA83A9831496CD90DD90ED906D
:10200000FC901797F10101AD12AD980150E040E04E
:1020100083E090E00D8002C0880F991F0A94E2F7D8
:10202000092E000CAA0BBB0B8C0D9D1DAE1DBF1DF8
:1020300082179307A407B50741F4A981BA811D96B9
:102040008C911D9780641D968C93C701B6016F5FBC
:102050007F4F8F4F9F4F0E94AB24E981FA816483A9
:10206000758386839783D101D596ED91FC91848108
:102070009581B8010E94DC24CB012D960FB6F8940F
:10208000DEBF0FBECDBFDF91CF911F910F91FF90AB
:10209000EF90DF90CF90BF90AF909F908F907F9008
:1020A0006F905F904F903F902F9008956081718165
:1020B000600F711F2F81388549855A85C1010E94A3
:1020C000840DD101D596ED91FC9160817181EB81F8
:1020D000FC816E0F7F1FA3019201C1010E94840D3C
:1020E000D101D596ED91FC9160817181EC85FD85E2
:1020F0006E0F7F1F6CCFCF92DF92EF92FF920F9304
:102100001F93CF93DF93EC01EFA9F8AD69AD7AADE2
:1021100080E091E00E94DC2494818085969F800D70
:1021200011240E94FA02AB01BC01C12CD12C760112
:1021300000E010E09801CE010E944D0FDF91CF9199
:102140001F910F91FF90EF90DF90CF900895CF9265
:10215000DF92EF92FF920F931F93CF93DF93EC01E7
:10216000EFA9F8AD69AD7AAD80E091E00E94DC2482
:1021700094818085969F800D11240E94FA02AB0104
:10218000BC01CC24CA94DC2CEC2CF12C0FEF1FEFFB
:102190002FEF30E0CE010E944D0FDF91CF911F91C4
:1021A0000F91FF90EF90DF90CF9008957F928F92E4
:1021B0009F92AF92BF92CF92DF92EF92FF920F93D6
:1021C0001F93CF93DF93EC01EFA9F8ADC480D580C6
:1021D000E680F78009AD1AAD70849C2D8827B80180
:1021E0000E94DC24872D860F0E94FA024B015C01BD
:1021F000C701B6016F5F7F4F8F4F9F4F980150E02F
:1022000040E00E94AB24962F8827B8010E94DC246E
:10221000872D860F0E94FA026B017C0195018401D3
:102220004FEF5FEF6FEF70E0CE010E944D0FDF9137
:10223000CF911F910F91FF90EF90DF90CF90BF90C3
:10224000AF909F908F907F900895CF92DF92EF9202
:10225000FF920F931F93CF93DF93EC010FA918AD5B
:10226000F80184819581A681B781892B8A2B8B2BDC
:1022700031F46485CE010E94320BF8018487EFA906
:10228000F8AD84850E94FA02AB01BC01CC24CA944B
:10229000DC2CEC2CF12C0FEF1FEF2FEF30E0CE01F8
:1022A0000E944D0FDF91CF911F910F91FF90EF9002
:1022B000DF90CF900895CF92DF92EF92FF920F932D
:1022C0001F93DC01D596ED91FC9100851185228547
:1022D0003385680179014FEF5FEF6FEF70E00E9487
:1022E0004D0F1F910F91FF90EF90DF90CF900895C9
:1022F000CF92DF92EF92FF920F931F93DC01D5965E
:10230000ED91FC914085518562857385C12CD12C5E
:10231000760100E010E098010E944D0F1F910F918F
:10232000FF90EF90DF90CF900895CF92DF92EF92E1
:10233000FF920F931F93DC01D596ED91FC914085A0
:10234000518562857385CC24CA94DC2CEC2CF12C4D
:102350000FEF1FEF2FEF30E00E944D0F1F910F91F5
:10236000FF90EF90DF90CF900895CF92DF92EF92A1
:10237000FF920F931F93DC01D596ED91FC91C088DD
:10238000D188E288F38804851585268537854085C0
:102390005185628573850E944D0F1F910F91FF90AB
:1023A000EF90DF90CF9008952F923F924F925F92DF
:1023B0006F927F928F929F92AF92BF92CF92DF9255
:1023C000EF92FF920F931F93CF93DF93CDB7DEB7BA
:1023D00062970FB6F894DEBF0FBECDBF9A8B898B84
:1023E000DC01D5960D911C91F80184859585A68513
:1023F000B7852780312C24E0359427942A95E1F77E
:10240000F22DF7702F2E2F2F30E0A9014E5E5C4F7A
:10241000FA013080265F3C4FF901F0804B2F5527A1
:102420006627772758874F832A2F30E03A872987F6
:10243000492F5A2F6B2F7727FA01FF27FC87EB874D
:102440009C0133273E872D87D8010D90BC91A02D8C
:10245000B88BAF871A821982CF84D888E981FA8134
:10246000CE0EDF1EA989BA89D596ED91FC91D6973B
:10247000828193818C159D0508F479C112968D9106
:102480009C91139720E030E0A901C816D90608F006
:102490006EC01E969C911E971B961C911B971996B9
:1024A000ED91FC911A9718968C901897692F70E00F
:1024B0001C962C911C9730E01D964C9150E0911386
:1024C0006BC0C601880F991F8C0D9D1D8E0F9F1F1D
:1024D000680F791FFB017081280F391FD901EC901B
:1024E000840F951FFC0110818820B9F1912CB12C2B
:1024F000A12C672F70E0762F6627072E000C880B23
:10250000990BA50194010E94AB2439015524442460
:102510006E2D70E0762F6627072E000C880B990B26
:10252000A50194010E94AB24542F432F322F222760
:10253000422A532A642A752A612F70E0762F662773
:10254000072E000C880B990BA50194010E94AB2467
:1025500024293529462957290AC02E2D30E050E07C
:1025600040E0542F432F322F2227472B212B2110BD
:102570007EC056954795379527952F773F774F77AC
:102580005F77B60189899A890E94840DE981FA8171
:102590003196FA83E98360CFC601880F991F880FAF
:1025A000991FE80FF91F6E0F7F1FDB019C91DF0160
:1025B000A10FB11D0C912E0F3F1FD9011C91E40FEB
:1025C000F51FE080882009F447C0912CB12CA12C84
:1025D000692F70E0762F6627072E000C880B990B69
:1025E000A50194010E94AB24722E66245524442434
:1025F000602F70E0762F6627072E000C880B990B52
:10260000A50194010E94AB24A90133272227422A65
:10261000532A642A752A6E2D70E0762F6627072EBE
:10262000000C880B990BA50194010E94AB24422A4F
:10263000532A642A752A612F70E0762F6627072EA9
:10264000000C880B990BA50194010E94AB24542F18
:10265000432F322F22277CCF202F30E050E040E064
:10266000A90133272227592B2E29312B80CF852EE4
:102670009924AA24BB24BA01882799276B837C83D9
:102680008D839E83432E542E652E7724EF81F8850B
:10269000E819F909CB019927A985BA85A81BB90BB7
:1026A000CD01B2017727AB85BC85A61BB70BBD0159
:1026B000D901BB270D851E850A1B1B0BDF01129656
:1026C000159778F0DF01032C02C0B595A7950A9401
:1026D000E2F70F2C02C0F595E7950A94E2F7EA0FAE
:1026E000FB1FDC011296159778F0DC01032C02C069
:1026F000B595A7950A94E2F70F2C02C0959587959A
:102700000A94E2F78A0F9B1FDB011296159778F067
:10271000DB01032C02C0B595A7950A94E2F70F2CB4
:1027200002C0759567950A94E2F76A0F7B1FD8017E
:102730001296159778F0D801032C02C0B595A7958D
:102740000A94E2F70F2C02C0159507950A94E2F758
:102750000A0F1B1FE82CEE0E020F460E4B81480F8E
:10276000242DB60189899A890E94AA0C0FCF6296FE
:102770000FB6F894DEBF0FBECDBFDF91CF911F9192
:102780000F91FF90EF90DF90CF90BF90AF909F9010
:102790008F907F906F905F904F903F902F90089513
:1027A0003F924F925F926F927F928F929F92AF92E1
:1027B000BF92CF92DF92EF92FF920F931F93CF932E
:1027C000DF93EC014A015B010E94D41149855A85CF
:1027D0009B858E8523E0981324E0EDA9FEA930E0C7
:1027E00082819381289FB001299F700D389F700DC1
:1027F0001124808191810196829FF001839FF00DC9
:10280000929FF00D1124E40FF51FCF01841B950B4F
:1028100086179707F8F4DF01A21BB30B8C9190E0A9
:102820009595879595958795A0818A0F911DDF01D4
:10283000A20FB31FAC91B0E0B595A795B595A7953C
:102840008A0F9B1F8F3F910519F010F08FEF90E0DA
:102850008193DBCFEDA9FEA9878190E095958795BF
:102860008370992722E030E0790102C0EE0CFF1C52
:102870008A95E2F78BA5D12CC12C81113CC094E143
:10288000492E512C2AE0322E89AD9AAD61E070E0DC
:102890008431910518F0B2010E94DC24C616D706D7
:1028A00008F059C0CE010E94F609839DC001112491
:1028B00091111DC0EDA9FEA96080718009AD1AAD0E
:1028C0000E191F09CE010E94090A9C01D8010E941D
:1028D000CD249301280F391F8701B501A401CE0132
:1028E0000E94B506EFA9F8AD8585806485878FEFD6
:1028F000C81AD80AC9CF8AE0682E712C09AD1AAD62
:1029000061E070E00A30110520F0C801B3010E94B7
:10291000DC24EDA9FEA9C616D706E8F44080518054
:102920000E191F09CE010E94090A9C01D8010E94BC
:10293000CD249201280F391F8701B501A401CE01D2
:102940000E94B506EFA9F8AD8585806485878FEF75
:10295000C81AD80AD3CFEDA9FEA98481958169ADA3
:102960007AAD0E94DC24CB01DF91CF911F910F91B2
:10297000FF90EF90DF90CF90BF90AF909F908F909F
:102980007F906F905F904F903F900895CF93DF932B
:10299000EC010E94F6090E94FA02AB01BC01CE01D3
:1029A000DF91CF910C94D013FF920F931F93CF938D
:1029B000DF938C0143E0F42EF801C5A9D6A9C80124
:1029C0000E94F6098F9DC0011124892F9927029634
:1029D000880F991F880F991FC80FD91F48815981E7
:1029E0006A817B81411551056105710529F3C80193
:1029F000DF91CF911F910F91FF900C94D013EF9224
:102A0000FF920F931F93CF93DF93EC010E94D41199
:102A1000EDA9FEA987812085318542855385AFA91F
:102A2000B8AD87FF37C06281738114968D919C91F8
:102A3000681B790BCE010E94840D0FA918ADE9AC7B
:102A4000FAACF80164817581868197816F5F7F4F51
:102A50008F4F9F4F970150E040E00E94AB24F80158
:102A60006483758386839783672B682B692B19F49E
:102A7000858580648587EDA9FEA984819581B7014C
:102A80000E94DC24CB01DF91CF911F910F91FF9029
:102A9000EF90089514966D917C9180819181680FDB
:102AA000791FC8CFCF92DF92EF92FF920F931F93BF
:102AB000CF93DF93EC010E94D411EFA9F8ADC4804D
:102AC000D580E680F78089AD9AAD8C0130E020E0BA
:102AD000EDA9FEA9C016D106E206F30608F047C02C
:102AE0002085318542855385878187FF3BC0628180
:102AF00073816C197D09CE010E94840DEFA9F8AD98
:102B000084819581A681B7810196A11DB11D848321
:102B10009583A683B78369AD7AAD61507048660F1F
:102B2000771F8B0130E020E080179107A207B307E1
:102B300038F0148215821682178285858064858715
:102B4000EDA9FEA96E5F7F4F848195810E94DC24F0
:102B5000CB01DF91CF911F910F91FF90EF90DF900C
:102B6000CF900895608171816C0D7D1DC4CF880F59
:102B7000991F02978C199D092085318542855385BF
:102B8000678167FF05C062817381681B790BB3CFD2
:102B900060817181680F791FAECF8F929F92AF9243
:102BA000BF92CF92DF92EF92FF920F931F93CF933A
:102BB000DF93EC014A015B010E94D411CE010E9417
:102BC000F60923E0829FC0011124911129C0EDA9CB
:102BD000FEA9E080F180878190E0959587958370CC
:102BE000992701E010E002C0000F111F8A95E2F75B
:102BF000C9ACDAACC01AD10ACE010E94090A9C0104
:102C0000D6010E94CD249701280F391FB501A401D8
:102C1000CE010E94B506EFA9F8AD85858064858751
:102C2000EDA9FEA98481958123E0969587952A9543
:102C3000E1F7DF91CF911F910F91FF90EF90DF901F
:102C4000CF90BF90AF909F908F900895CF93DF93D8
:102C5000EC010E94F6090E94FA02AB01BC01CE0110
:102C6000DF91CF910C94CD15DC01D596ED91FC91BF
:102C700040855185628573850C94CD15CF92DF9286
:102C8000EF92FF920F931F93CF93DF937C01DC01B0
:102C9000D596ED91FC91D697278130E03595279513
:102CA00023703327D9966D917C9180E091E00E944A
:102CB000DC24CB01022E02C0880F991F0A94E2F790
:102CC00011E0892B49F081E090E001C0880F2A953E
:102CD000EAF7869F102D1124D12CC12CF70161AD8C
:102CE00072AD27A930ADF90184819581A681B781A4
:102CF000F701C5A9D6A9C616D70650F58C0D9D1D9E
:102D0000A11DB11D189FE02D1124F0E0EC59FC4FDE
:102D100004912C853D854E855F85688579858A85FA
:102D20009B850E9457039B01AC018F8187FF0BC0DD
:102D3000688179816C0D7D1DC7010E94840DFFEFB4
:102D4000CF1ADF0ACBCF6A817B816C197D09F4CF62
:102D50000196A11DB11D9927AA27BB27F9018483DC
:102D60009583A683B783892B8A2B8B2B19F48585B2
:102D7000806485878C819D810E94DC24CB01DF915A
:102D8000CF911F910F91FF90EF90DF90CF9008951A
:102D90002F923F924F925F926F927F928F929F926B
:102DA000AF92BF92CF92DF92EF92FF920F931F9359
:102DB000CF93DF9300D000D01F921F92CDB7DEB724
:102DC00098878F832A016D837E83722E632EDC01A8
:102DD000D596ED91FC91D697878190E09595879552
:102DE0008370992721E030E0490102C0880C991CCA
:102DF0008A95E2F7B82CBB0CAB2CA80CD796ED91BA
:102E0000FC912A2D30E050E040E06481758186819C
:102E100097810E94AB24CB01312C212CEA2DF0E0CC
:102E2000FA83E9832B2D30E03C832B83AF81B88577
:102E3000D996AD90BC902A143B0490F569817A81B3
:102E40000E94DC245C0192014D815E818815990508
:102E500050F0EB81FC819801472D562D8E179F076E
:102E600010F09601A701AF81B885D596ED91FC9140
:102E7000D697878187FF0DC060817181620D731DB8
:102E8000CD010E94840DBFEF2B1A3B0AC5010196AC
:102E9000CDCF62817381621973098F819885F1CFDB
:102EA000EF81F88507A910ADD80114966D917D9139
:102EB0008D919C9117976F5F7F4F8F4F9F4FF801B8
:102EC0006483758386839783950150E040E00E9478
:102ED000AB24672B682B692B39F4D8011D968C9194
:102EE0001D9780641D968C93AF81B885D596ED9122
:102EF000FC9184819581B5010E94DC24CB01289648
:102F00000FB6F894DEBF0FBECDBFDF91CF911F91FA
:102F10000F91FF90EF90DF90CF90BF90AF909F9078
:102F20008F907F906F905F904F903F902F9008957B
:102F3000CF92DF92EF92FF920F931F93CF93DF9385
:102F4000EC01EFA9F8AD84819581A681B781019646
:102F5000A11DB11DAC01BD0155276627772744830C
:102F60005583668377830E94FA02AB01BC01EDA909
:102F7000FEA9048515852685378568017901CE016E
:102F80000E94C816DF91CF911F910F91FF90EF9093
:102F9000DF90CF900895CF92DF92EF92FF920F9340
:102FA0001F93DC01D596ED91FC910485158526854E
:102FB00037854085518562857385680179010E9456
:102FC000C8161F910F91FF90EF90DF90CF9008955A
:102FD000CF92DF92EF92FF920F931F93C12CD12CCF
:102FE00076010FEF1FEF2FEF30E040E050E06FEF82
:102FF00070E00E94C8161F910F91FF90EF90DF9034
:10300000CF900895CF92DF92EF92FF920F931F938C
:10301000DC01D596ED91FC91C088D188E288F388D7
:10302000048515852685378540855185628573859C
:103030000E94C8161F910F91FF90EF90DF90CF90E4
:1030400008958F929F92AF92BF92CF92DF92EF92AC
:10305000FF920F931F93CF93DF938C01F12CE12C00
:10306000D0E0C0E0D801D9966D917C91DA97D796DF
:10307000ED91FC91D89784809580A680B780D596F5
:10308000CD90DC90C617D707A0F4C7010E94DC24BE
:10309000862F880D0E94FA029B01AC01F601608127
:1030A00071816C0F7D1FC8010E94840D2196F394DD
:1030B000D9CF8FEF881A980AA80AB80A9924AA24A7
:1030C000BB2484829582A682B78289288A288B288D
:1030D00019F4858580648587D60115968C9190E0DA
:1030E000DF91CF911F910F91FF90EF90DF90CF90E4
:1030F000BF90AF909F908F9008957F928F929F92F4
:10310000AF92BF92CF92DF92EF92FF920F931F93F5
:10311000CF93DF93EC014A015B01B901A801EFA94C
:10312000F8AD8485FF24F394882311F0FF24FA94EA
:10313000EDA9FEA9878190E09595879583709927E1
:1031400021E030E0690102C0CC0CDD1C8A95E2F779
:103150007C2C09AD1AAD20813181CE010E94B506CB
:1031600010E000E0ADA9BEA917968C91179787FDD6
:1031700002C0EE2081F0EFA9F8AD12966D917C911E
:1031800084819581681B790B601B710BA5019401EB
:10319000CE010E94840DEDA9FEA9878187FF02C0A0
:1031A000EE2081F0AFA9B8AD14966D917C9180812D
:1031B0009181680F791F600F711FA5019401CE01E5
:1031C0000E94840D0F5F1F4F071560F2EFA9F8AD45
:1031D0008F2DFF0C990BAA0BBB0B44815581668187
:1031E0007781840F951FA61FB71F84839583A683BD
:1031F000B7830097A105B10521F4148625852064C5
:10320000258769AD7AAD8B010C191D0930E020E0EE
:1032100080179107A207B30710F081E08487EDA91A
:10322000FEA9660F771F848195810E94DC24CB0163
:10323000DF91CF911F910F91FF90EF90DF90CF9092
:10324000BF90AF909F908F907F900895EF920F93D3
:103250001F93DC01D596ED91FC910485158526859B
:1032600037854085518562857385EE24E3940E94FD
:103270007D181F910F91EF900895EF920F931F9378
:10328000DC01D596ED91FC91048515852685378561
:103290004085518562857385E12C0E947D181F91C0
:1032A0000F91EF9008950F931F93CF93DF93EC014D
:1032B000EDA9FEA900811181EDA9FEA9828193816A
:1032C0008017910770F0CE010E94F6090E94FA0261
:1032D0009B01AC01B801CE010E94840D0F5F1F4F0E
:1032E000EBCFAFA9B8AD1D968C911D9780641D964C
:1032F0008C9384819581DF91CF911F910F910895D7
:10330000AF92BF92CF92DF92EF92FF920F931F93F3
:10331000CF93DF93EC01EFA9F8AD80859185A2856D
:10332000B385892B8A2B8B2BC9F4EDA9FEA90081CB
:103330001181EDA9FEA9828193818017910770F018
:10334000CE010E94F6090E94FA029B01AC01B8016D
:10335000CE010E94840D0F5F1F4FEBCFCE010E9464
:10336000F6090E94FA026B017C01EDA9FEA9008119
:103370001181A9ACBAACCE010E94090A9C01D50109
:103380000E94CD24B801680F791FA7019601CE01D4
:103390000E94840DEFA9F8AD858580648587EDA92D
:1033A000FEA984819581DF91CF911F910F91FF90AC
:1033B000EF90DF90CF90BF90AF9008958F929F9243
:1033C000AF92BF92CF92DF92EF92FF920F931F9333
:1033D000CF93DF93EC014A015B01A90198016E2DA7
:1033E000EFA9F8AD84819581A681B781C9ACDAAC2B
:1033F000F12CE12CEDA9FEA977818C159D05AE0578
:10340000BF0508F045C077FF3EC062817381681B2D
:10341000790BA5019401CE010E94840DEFA8F8ACB0
:1034200009AD1AAD000F111FF70164817581868106
:1034300097816F5F7F4F8F4F9F4F980150E040E023
:103440000E94AB24F7016483758386839783672B7F
:10345000682B692B19F4858580648587EDA9FEA901
:1034600084819581B8010E94DC24CB01DF91CF914A
:103470001F910F91FF90EF90DF90CF90BF90AF9092
:103480009F908F90089560817181680F791FC1CFDF
:103490008C199D09AE09BF0977FF07C0611107C0EC
:1034A00062817381681B790BB6CF6111F9CF60819E
:1034B0007181680F791FAFCFEF920F931F93CF9356
:1034C000DF93EC010FA918AD29AD3AAD50E040E013
:1034D000F80164817581868197810E94AB24672BF6
:1034E000682B692B39F4F8016485CE010E94320BF8
:1034F000F8018487EFA9F8AD84850E94FA02AB0138
:10350000BC01EE24E3948A019C01CE010E94DE19E5
:10351000880F991FDF91CF911F910F91EF90089520
:10352000EF920F931F93CF93DF93EC010FA918AD88
:1035300029AD3AAD50E040E0F801648175818681A3
:1035400097810E94AB24672B682B692B39F4F80113
:103550006485CE010E94320BF8018487EFA9F8AD93
:1035600084850E94FA02AB01BC01E12C8A019C0116
:10357000CE010E94DE19880F991FDF91CF911F9114
:103580000F91EF900895EF920F931F93DC01D59662
:10359000ED91FC9100851185228533854485558503
:1035A00066857785EE24E3940E94DE191F910F91C2
:1035B000EF900895EF920F931F93DC01D596ED9154
:1035C000FC91048515852685378540855185628562
:1035D0007385EE24E3940E94DE191F910F91EF9002
:1035E0000895EF920F931F93DC01D596ED91FC9116
:1035F00000851185228533854485558566857785C7
:10360000E12C0E94DE191F910F91EF900895EF9227
:103610000F931F93DC01D596ED91FC9104851585E0
:10362000268537854085518562857385E12C0E940A
:10363000DE191F910F91EF900895CF92DF92EF92D4
:10364000FF920F931F93CF93DF93EC018AA5811113
:1036500004C08BA5882309F496C08FB7F894C09056
:103660001B03D0901C03E0901D03F0901E038FBF3E
:1036700010E020E004E18BA9181708F078C0E12FD2
:10368000F0E0A8A9B9A9AE0FBF1F8C918F3F09F434
:103690006CC0ACA5BDA5809FA00DB11D1124BEAB13
:1036A000ADAB12968D919C91139701964D915C91C3
:1036B0001197841B950B9AAF89AF44E0EE0FFF1F63
:1036C0004A95E1F78EA59FA5E80FF91FF8AFEFAB7C
:1036D00085858F73858740815181628173814C1507
:1036E0005D056E057F0518F09BA59923F1F18068B3
:1036F00085871696EC9124E0E29FF0011124E65FA5
:10370000FD4F22813381C901959587958C0F9D1FAF
:103710000190F081E02D20FF08C0DC012D913C914B
:10372000E20FF31F0190F081E02D1995EFA9F8AD9C
:103730008A30910510F48AE090E0A7019601280FE5
:10374000391F411D511DDA01C90180839183A28374
:10375000B38380859185A285B3850196A11DB11D96
:1037600080879187A287B38721E01F5F84CF2223C0
:1037700049F061E070E080E090E00E94D204CE0168
:103780000E947B0B1BA6DF91CF911F910F91FF90A1
:10379000EF90DF90CF900895E0919D05F0919E0508
:1037A0006087718782879387E0916205F091630556
:1037B0006087718782879387E0912705F0912805BC
:1037C0006087718782879387E091EC04F091ED0424
:1037D0006087718782879387E091B104F091B2048A
:1037E0006087718782879387E0917604F0917704F0
:1037F0006087718782879387E0913B04F0913C0456
:103800006087718782879387E0910004F0910104BB
:103810006087718782879387E091C503F091C60323
:103820006087718782879387E0918A03F0918B0389
:103830006087718782879387E0914F03F0915003EF
:1038400060877187828793870895CF93C82F682FE9
:1038500081E795E00E94690C6C2F86E395E00E9459
:10386000690C6C2F8BEF94E00E94690C6C2F80EC3C
:1038700094E00E94690C6C2F85E894E00E94690C2A
:103880006C2F8AE494E00E94690C6C2F8FE094E026
:103890000E94690C6C2F84ED93E00E94690C6C2FE0
:1038A00089E993E00E94690C6C2F8EE593E00E94F9
:1038B000690C6C2F83E293E0CF910C94690C88EE35
:1038C00093E0089588EE93E0089588EE93E00895DC
:1038D00088EE93E0089588EE93E0089588EE93E0F3
:1038E000089588EE93E008950F931F93CF93DF938D
:1038F000EC0108A919A94BA950E070E060E0C801EB
:103900000E943126009781F0801B910B24E0880FE4
:10391000991F2A95E1F72EA53FA5820F931F20E15D
:10392000FC0111922A95E9F7DF91CF911F910F9138
:1039300008951F93CF93DF93EC01162F0E94741C00
:10394000ECA5FDA51683DF91CF911F910895FC0191
:1039500043A9F0E14F9FA001112470E060E0FC0159
:1039600086A597A50C945026CF93DF93EC010E9477
:10397000A71C81E08AA7DF91CF91089581E795E0A8
:103980000E94B41C86E395E00E94B41C8BEF94E087
:103990000E94B41C80EC94E00E94B41C85E894E082
:1039A0000E94B41C8AE494E00E94B41C8FE094E06E
:1039B0000E94B41C84ED93E00E94B41C89E993E05A
:1039C0000E94B41C8EE593E00E94B41C83E293E055
:1039D0000C94B41C0E94BE1C8FEF0E94251C60E05A
:1039E0007FEF8FEF90E00E94CC1B62E381E795E0D0
:1039F0000E94991C60E186E395E00E94991C62E3B5
:103A00008BEF94E00E94991C60E180EC94E00E94AE
:103A1000991C62E385E894E00E94991C60E18AE4C5
:103A200094E00E94991C62E38FE094E00E94991C4C
:103A300060E184ED93E00E94991C62E389E993E0E0
:103A40000E94991C60E18EE593E00E94991C62E35C
:103A500083E293E00C94991C0E94BE1C8FEF0E949D
:103A6000251C60E07FEF8FEF90E00E94CC1B63E3AA
:103A700081E795E00E94991C6AE086E395E00E9448
:103A8000991C63E38BEF94E00E94991C6AE080EC40
:103A900094E00E94991C63E385E894E00E94991CDD
:103AA0006AE08AE494E00E94991C63E38FE094E06A
:103AB0000E94991C6AE084ED93E00E94991C63E3E4
:103AC00089E993E00E94991C6AE08EE593E00E94E8
:103AD000991C63E383E293E00C94991C0E94BE1C42
:103AE0008FEF0E94251C6FEF73E380E090E00E944F
:103AF000CC1B62E381E795E00E94991C62E386E3B8
:103B000095E00E94991C62E38BEF94E00E94991C5F
:103B100062E380EC94E00E94991C62E385E894E003
:103B20000E94991C62E38AE494E00E94991C62E37B
:103B30008FE094E00E94991C62E384ED93E00E9480
:103B4000991C62E389E993E00E94991C62E38EE587
:103B500093E00E94991C62E383E293E00C94991C29
:103B60000E94BE1C8FEF0E94251C6FEF7FEF8FEF2E
:103B700090E00E94CC1B62E181E795E00E94991CD5
:103B800062E186E395E00E94991C62E18BEF94E08C
:103B90000E94991C62E180EC94E00E94991C62E111
:103BA00085E894E00E94991C62E18AE494E00E9416
:103BB000991C62E18FE094E00E94991C62E184ED1F
:103BC00093E00E94991C62E189E993E00E94991CAC
:103BD00062E18EE593E00E94991C62E183E293E04A
:103BE0000C94991CCF93DF93EC010E94A71C8E814B
:103BF0009F8197FD06C061E00E9471048E810E9442
:103C00004A0481E08983DF91CF910895CF93DF93B8
:103C1000EC011AA64C815D8170E060E089859A858F
:103C20000E945026CE01DF91CF910C947B0B81E74F
:103C300095E00E94061E86E395E00E94061E8BEF2B
:103C400094E00E94061E80EC94E00E94061E85E827
:103C500094E00E94061E8AE494E00E94061E8FE013
:103C600094E00E94061E84ED93E00E94061E89E9FE
:103C700093E00E94061E8EE593E00E94061E83E2FA
:103C800093E00C94061E6F927F928F929F92AF9258
:103C9000BF92DF92EF92FF920F931F93CF93DF9328
:103CA000EC0179016DA87EA8F301D7802FA938AD6A
:103CB000AD2DB0E0B595A795A370BB2782E090E04D
:103CC00002C0880F991FAA95E2F7092E000CAA0BD3
:103CD000BB0BF90184809580A680B780882199214B
:103CE000AA21BB21892B8A2B8B2B11F08A017B0106
:103CF00069AD7AAD61507109F30140815181DA01FA
:103D0000119689859A853E852B85D7FE5AC0321338
:103D100056C023E030E02A9FF0012B9FF00D3A9F20
:103D2000F00D1124269FA001279F500D369F500DA6
:103D30001124BC016E0F7F1FE21BF30B8E0F9F1F20
:103D40000E943E26EDA9FEA9628173819801A70118
:103D5000CE010E94840D0FA918ADE9ACFAACF801B0
:103D600064817581868197816F5F7F4F8F4F9F4FF1
:103D7000970150E040E00E94AB24F8016483758312
:103D800086839783672B682B692B19F4858580645C
:103D90008587EDA9FEA984819581B7010E94DC2465
:103DA000CB01DF91CF911F910F91FF90EF90DF90AA
:103DB000BF90AF909F908F907F906F90089524E078
:103DC000A9CF32131EC023E030E0249FF001259FCD
:103DD000F00D349FF00D1124269FA001279F500D58
:103DE000369F500D1124BC016E0F7F1F2E0F3F1FF9
:103DF000820F931F0E943E26EDA9FEA9608171816A
:103E0000A5CF24E0E1CF0F931F93CF93DF93EC0175
:103E10000FA918ADEDA9FEA9278130E035952795AA
:103E20002370332782E090E002C0880F991F2A9503
:103E3000E2F70197092E000CAA0BBB0BF801448195
:103E400055816681778184239523A623B723892B07
:103E50008A2B8B2B31F46485CE010E94320BF80142
:103E60008487EFA9F8AD84850E94FA02AB01BC01FA
:103E70008A019C01CE010E94431EDF91CF911F91C8
:103E80000F9108950F931F9300E010E32FEF30E0A0
:103E900040E850E060E470E00E94431E1F910F91E3
:103EA00008950F931F9300E01FEF20E030E040E003
:103EB00050E06FEF70E00E94431E1F910F91089534
:103EC0000F931F930FEF10E020E030E040E050E050
:103ED0006FEF70E00E94431E1F910F9108950F93A2
:103EE0001F93DC01D596ED91FC91048515852685FF
:103EF000378540855185628573850E94431E1F91D9
:103F00000F9108954F925F926F927F928F929F923E
:103F1000AF92BF92CF92DF92EF92FF920F931F93D7
:103F2000CF93DF93EC012A013B01B901A801EFA96E
:103F3000F8AD84819581A681B781892B8A2B8B2B43
:103F4000C1F509AD1AADEDA9FEA920813181CE01DF
:103F50000E94B506C9ACDAACD694C794D694C7947F
:103F60008FEFC81AD80A4601880C991CB12CA12CD5
:103F7000F12CE12CC814D904EA04FB048CF48C184D
:103F80009D08AE08BF0841F00E942124A5019401BC
:103F90000E9479244B015C01C80CD91CEA1CFB1C53
:103FA000EFA9F8ADC482D582E682F7828585806468
:103FB0008587EDA9FEA9E080F180C9ACDAACCE011D
:103FC0000E94090A9C01D6010E94CD24B701680F06
:103FD000791FA3019201CE010E94840DEFA9F8ADD3
:103FE00084819581A681B7810197A109B109848354
:103FF0009583A683B783EDA9FEA98481958169ADD8
:104000007AAD0E94DC24CB01DF91CF911F910F91FB
:10401000FF90EF90DF90CF90BF90AF909F908F90E8
:104020007F906F905F904F900895CF92DF92EF92C4
:10403000FF920F931F93CF93DF93EC01EDA9FEA99D
:10404000C484D584E684F7840E94F6090E94FA02AB
:10405000AB01BC0197018601CE010E94821FDF9156
:10406000CF911F910F91FF90EF90DF90CF90089527
:104070000F931F93DC01D596ED91FC910485158576
:104080002685378540855185628573850E94821F0C
:104090001F910F9108951F920F920FB60F92112446
:1040A0002F933F938F939F93AF93BF9380911B0365
:1040B00090911C03A0911D03B0911E0330911A032F
:1040C00023E0230F2D3758F50196A11DB11D209334
:1040D0001A0380931B0390931C03A0931D03B093BA
:1040E0001E0380911F0390912003A0912103B091A2
:1040F00022030196A11DB11D80931F0390932003FD
:10410000A0932103B0932203BF91AF919F918F9110
:104110003F912F910F900FBE0F901F90189526E89A
:10412000230F0296A11DB11DD2CFFC01862F22E3E1
:1041300030E03383228320E931E03583248320E299
:1041400033E03783268313861286158614861786F6
:104150001686118A108A138A128A158A148A178A77
:10416000168A118E108E138E128E158E148E178E47
:10417000168E11A210A213A212A215A214A211A6A9
:1041800010A613A612A615A614A617A616A611AA5F
:1041900010AA21E030E031AF20AF60837183118637
:1041A000108662E00C947104EF92FF920F931F93BC
:1041B000CF93DF93EC01F62E198218861F86188A9A
:1041C000198A1A8A81E08E878B871C8692E09D87E8
:1041D000888300EB11E01D830C8380EB91E00E944B
:1041E0000C259A878987009709F4D5C0FC019801AE
:1041F000119221503040E1F780E990E09B838A835F
:104200000F2D10E01F830E838981882339F061E030
:104210008F2D0E9471048F2D0E944A04F801EE54E4
:10422000FB4FE491F0E0EE0FFF1FE856FB4F859146
:1042300094919C8B8B8BF801E850FB4FE491ED8BB4
:1042400087EF92E0998F888F81E79CE19B8F8A8F1F
:104250008EE69CE19D8F8C8F8BE69CE19F8F8E8FED
:1042600088E69CE199A388A385E69CE19BA38AA3A9
:1042700082E69CE19DA38CA38FE59CE19FA38EA386
:1042800019A618A61CAA83E388871AA611E01AAB00
:104290001BAB84E190E00E940C257C0104E1FC0151
:1042A000202F11922A95E9F79DA78CA781E090E035
:1042B0000E940C25FC01108299AB88AB80E190E054
:1042C0000E940C2520E1FC0111922A95E9F79FA795
:1042D0008EA7FEAAEDAA98AF8FABCE010E94A71CB5
:1042E0004AA9409FA001112470E060E08CA59DA523
:1042F0000E9450264BA950E06FEF70E088A999A961
:104300000E9450261CAA8AA9882309F449C01CAB24
:10431000ECA5FDA5118210828FE890E09383828343
:10432000168288EE93E095838483178280E090E084
:10433000AFEFB0E080879187A287B3871486158698
:1043400016861786108A118A128A138A1BA91123CE
:1043500039F108A9F9A8412F50E070E060E0802F02
:104360009F2D0E943126892BD9F4302F802F9F2D2D
:10437000282F231B2117A0F4FC01019620812F3F39
:10438000B9F71082CE01DF91CF911F910F91FF906D
:10439000EF900C94741C1D821C821B821A8230CFF9
:1043A000DF91CF911F910F91FF90EF900895789436
:1043B00084B5826084BD84B5816084BD85B582602A
:1043C00085BD85B5816085BD80916E0081608093DB
:1043D0006E00109281008091810082608093810044
:1043E0008091810081608093810080918000816054
:1043F000809380008091B10084608093B1008091AF
:10440000B00081608093B0008091910082608093C1
:104410009100809191008160809391008091900043
:104420008160809390008091A10082608093A100C0
:104430008091A10081608093A1008091A0008160A3
:104440008093A0008091210182608093210180915E
:1044500021018160809321018091200181608093FE
:10446000200180917A00846080937A0080917A00A4
:10447000826080937A0080917A00816080937A00D4
:1044800080917A00806880937A001092C10062E087
:104490008BE00E94710462E08CE00E94710462E093
:1044A0008DE00E94710462E08EE00E94710460E081
:1044B0008FE00E9471048AEE9CE190939F068093A6
:1044C0009E068CE29DE190936506809364068EE6DD
:1044D0009DE190932B0680932A0687E19EE19093BD
:1044E000F1058093F00580EB9DE19093B7058093F3
:1044F000B60581E795E00E94F21D86E395E00E94F3
:10450000F21D8BEF94E00E94F21D80EC94E00E947B
:10451000F21D85E894E00E94F21D8AE494E00E9476
:10452000F21D8FE094E00E94F21D84ED93E00E9462
:10453000F21D89E993E00E94F21D8EE593E00E944E
:10454000F21D83E293E00E94F21D80E00E94251C90
:10455000E0919D05F0919E058AE090E0958384832B
:10456000E0916205F091630595838483E0912705CE
:10457000F091280595838483E091EC04F091ED049B
:1045800095838483E091B104F091B2049583848390
:10459000E0917604F091770495838483E0913B0465
:1045A000F0913C0495838483E0910004F091010430
:1045B00095838483E091C503F091C603958384833A
:1045C000E0918A03F0918B0395838483E0914F03FC
:1045D000F09150039583848360E070E0CB010E94EA
:1045E000CC1B0E94BE1CC0E0D0E084E996E00E9493
:1045F00004058AE596E00E94040580E296E00E94A8
:10460000040586EE95E00E9404058CEA95E00E9480
:10461000040581E795E00E941D1B86E395E00E945A
:104620001D1B8BEF94E00E941D1B80EC94E00E9408
:104630001D1B85E894E00E941D1B8AE494E00E9403
:104640001D1B8FE094E00E941D1B84ED93E00E94EF
:104650001D1B89E993E00E941D1B8EE593E00E94DB
:104660001D1B83E293E00E941D1B6AE070E080E066
:1046700090E00E94D204209709F4B7CF0E94000076
:10468000B4CF60E081E795E00E94D42061E086E34A
:1046900095E00E94D42062E08BEF94E00E94D42049
:1046A00063E080EC94E00E94D42064E085E894E02C
:1046B0000E94D42065E08AE494E00E94D42066E061
:1046C0008FE094E00E94D42067E084ED93E00E94A4
:1046D000D42068E089E993E00E94D42069E08EE567
:1046E00093E00E94D4206AE083E293E00E94D42009
:1046F0006BE070E084E996E00E9495206CE070E049
:104700008AE596E00E9495206DE070E080E296E0F8
:104710000E9495206EE070E086EE95E00E94952064
:104720006FE070E08CEA95E00C949520CF93DF93D6
:10473000EC0189859A850E94A8258E819F8197FD2D
:1047400005C060E0DF91CF910C947104DF91CF91AF
:10475000089583E293E00E9496238EE593E00E9401
:10476000962389E993E00E94962384ED93E00E94CA
:1047700096238FE094E00E9496238AE494E00E94BE
:10478000962385E894E00E94962380EC94E00E94B2
:1047900096238BEF94E00E94962386E395E00E9497
:1047A000962381E795E00C9496238F929F92AF9287
:1047B000BF92CF92DF92EF92FF92CF93DF93EC0103
:1047C000688179818A819B816115710581059105D7
:1047D00021F464E279ED8BE597E02DE133EF41E0E0
:1047E00050E00E94792449015A019B01AC01A7EADB
:1047F000B1E40E9498246B017C01ACEEB4EFA501FA
:1048000094010E94A624C60ED71EE81EF91EF7FECC
:1048100006C081E0C81AD108E10880E8F80AC88219
:10482000D982EA82FB82C701B6019F77DF91CF91DF
:10483000FF90EF90DF90CF90BF90AF909F908F90C0
:1048400008958F929F92AF92BF92CF92DF92EF9294
:10485000FF9260910002709101028091020290919A
:104860000302611571058105910521F464E279ED7A
:104870008BE597E02DE133EF41E050E00E94792491
:1048800049015A019B01AC01A7EAB1E40E949824B6
:104890006B017C01ACEEB4EFA50194010E94A6244B
:1048A000C60ED71EE81EF91EF7FE06C081E0C81A24
:1048B000D108E10880E8F80AC0920002D092010213
:1048C000E0920202F0920302C701B6019F77FF90C7
:1048D000EF90DF90CF90BF90AF909F908F90089512
:1048E000609300027093010280930202909303028E
:1048F0000895052E97FB1EF400940E94902457FD06
:1049000007D00E94AB2407FC03D04EF40C949024F3
:1049100050954095309521953F4F4F4F5F4F0895EB
:1049200090958095709561957F4F8F4F9F4F08951B
:104930000E94CD24A59F900DB49F900DA49F800D43
:10494000911D11240895B7FF0C9498240E94982477
:10495000821B930B0895A1E21A2EAA1BBB1BFD011B
:104960000DC0AA1FBB1FEE1FFF1FA217B307E4074E
:10497000F50720F0A21BB30BE40BF50B661F771FA6
:10498000881F991F1A9469F7609570958095909586
:104990009B01AC01BD01CF010895A29FB001B39F5F
:1049A000C001A39F700D811D1124911DB29F700D38
:1049B000811D1124911D0895AA1BBB1B51E107C045
:1049C000AA1FBB1FA617B70710F0A61BB70B881F9F
:1049D000991F5A95A9F780959095BC01CD0108952E
:1049E00097FB072E16F4009407D077FD09D00E949C
:1049F000DC2407FC05D03EF4909581959F4F0895E7
:104A0000709561957F4F0895EE0FFF1F881F8BBF34
:104A10000790F691E02D19940F931F93CF93DF9396
:104A20008230910510F482E090E0E091D006F091A0
:104A3000D10630E020E0B0E0A0E0309799F42115F5
:104A4000310509F44AC0281B390B24303105D8F54B
:104A50008A819B816115710589F1FB0193838283B2
:104A6000FE0111C04081518102811381481759070D
:104A7000E0F04817590799F4109761F012960C93DB
:104A8000129713961C933296CF01DF91CF911F910D
:104A90000F9108950093D0061093D106F4CF2115FD
:104AA000310551F04217530738F0A901DB019A0193
:104AB000BD01DF01F801C1CFEF01F9CF9093D1061D
:104AC0008093D006CDCFFE01E20FF31F8193919327
:104AD0002250310939832883D7CF2091CE063091D7
:104AE000CF06232B41F42091060230910702309328
:104AF000CF062093CE0620910402309105022115A5
:104B0000310541F42DB73EB740910802509109029A
:104B1000241B350BE091CE06F091CF06E217F30788
:104B2000A0F42E1B3F0B2817390778F0AC014E5F1D
:104B30005F4F2417350748F04E0F5F1F5093CF0685
:104B40004093CE06819391939FCFF0E0E0E09CCF1D
:104B5000CF93DF930097E9F0FC0132971382128222
:104B6000A091D006B091D106ED0130E020E0109781
:104B7000A1F420813181820F931F2091CE063091C4
:104B8000CF062817390709F061C0F093CF06E093EC
:104B9000CE06DF91CF910895EA01CE17DF07E8F541
:104BA0004A815B819E0141155105B1F7E901FB8303
:104BB000EA8349915991C40FD51FEC17FD0761F4A1
:104BC000808191810296840F951FE90199838883E2
:104BD000828193819B838A83F0E0E0E012968D913D
:104BE0009C9113970097B9F52D913C911197CD01A8
:104BF0000296820F931F2091CE063091CF06281780
:104C0000390739F6309751F51092D1061092D00637
:104C1000B093CF06A093CE06BCCFD383C28340818E
:104C20005181840F951FC817D90761F44E5F5F4FFC
:104C300088819981480F591F518340838A819B81C4
:104C4000938382832115310509F0B0CFF093D1060B
:104C5000E093D0069ECFFD01DC01C0CF138212820B
:104C6000D7CFFC014150504030F001900616D1F7EB
:104C70003197CF01089588279927089568177907F4
:104C800068F4FB01DC01E40FF51FA40FB51F02C09F
:104C900002900E9241505040D8F708950C94572638
:104CA000DC0101C06D9341505040E0F70895FB01D5
:104CB000DC0102C001900D9241505040D8F7089598
:104CC00012E0C3ECD2E000E006C0802FFE010E949B
:104CD00004252196011DC43CD10780E00807A9F7EF
:044CE000F894FFCF76
:104CE400010000000000D2068000D7090000C109BD
:104CF400000099080000071B0000F11A0000DA1AEE
:104D04000000C31A0000901A0000500B0000801924
:104D14000000531900000D080000211800003D197F
:104D240000002619000042080000CB170000981765
:104D340000003E1600003820000015200000341644
:104D4400000026160000B70A0000A40A0000CA0AE0
:104D540000008D0900006F09000095070000A409F8
:104D640000005B1100009511000025110000A71040
:104D74000000580E0000490E0000D6100000781103
:104D840000007B1000005C1A00006F1F0000601F11
:104D94000000031F000052150000FF140000D4148B
:104DA4000000C6140000511F0000800D00007C0D9F
:104DB4000000780D0000E8170000421F0000B51144
:104DC400000002180000620E0000900700008B072C
:104DD400000086070000810700007C0700007707B9
:104DE4000000720700006D070000000203080808B5
:0A4DF4000808000101010203040693
:00000001FF
